:020000041000EA
:1000000000B5324B212058609868022188439860DF
:10001000D860186158612E4B002199600221596106
:100020000121F02299502B49196001219960352056
:1000300000F044F80222904214D00621196600F024
:1000400034F8196E01211966002018661A6600F04E
:100050002CF8196E196E196E052000F02FF8012189
:100060000842F9D1002199601B49196000215960AB
:100070001A491B48016001219960EB211966A021F2
:10008000196600F012F800219960164914480160C1
:100090000121996001BC002800D000471248134993
:1000A000086003C880F30888084703B5996A0420EC
:1000B0000142FBD001200142F8D103BD02B5186610
:1000C0001866FFF7F2FF186E186E02BD00000240BE
:1000D000000000180000070000035F00212200005C
:1000E000F4000018222000A00001001008ED00E03C
:1000F00000000000000000000000000074B24E7A12
:1001000000200420F7010010C3010010C5010010F9
:10011000C1010010C1010010C1010010C101001097
:10012000C1010010C1010010C1010010C701001081
:10013000C1010010C1010010C9010010CB01001065
:10014000CD010010CD010010CD010010CD01001037
:10015000CD010010CD010010CD010010CD01001027
:10016000CD010010CD010010CD010010CD01001017
:10017000CD010010CD010010CD010010CD01001007
:10018000CD010010CD010010CD010010CD010010F7
:10019000CD010010CD010010CD010010CD010010E7
:1001A000CD010010CD010010CD010010CD010010D7
:1001B000CD010010CD010010CD010010CD010010C7
:1001C00000BE00BE00BE00BE00BE00BE00F04BF888
:1001D000103800BEF2EB8871D4760010F47600106F
:1001E0003402001090A31AE700202149086006C8D5
:1001F00081F3088810471F48006800282FD10DA4FC
:100200000ECC002902D000F012F8F9E71A491B4A77
:10021000002000E001C19142FCD1194988471949E9
:1002200088471949884700BEFDE701C901C29A42C3
:10023000FBD37047F4760010C0000020400500207A
:10024000747B00100000042000000420747B001068
:1002500000100420001004200000000070470B482C
:1002600003F066F90047EFF30580C0B27047000065
:1002700008ED00E0000000D040050020C41200207E
:10028000111A0010D5030010011B00105756000072
:1002900006005250ABB360539874001006005250E1
:1002A000861C0302A8740010060052505422A29D1E
:1002B000B074001005005250DE65F468747B0010C5
:1002C000F8B5C04606480749091A8B10C90FC91866
:1002D00010B5491003D0044B002B00D0984710BD37
:1002E000400500204005002000000000054B10B52F
:1002F000002B03D00449054800E000BFFFF7E2FFF0
:1003000010BDC0460000000054120020F071001023
:10031000F0B5DE46574680B589B01422002103A807
:1003200003F0F0FF00239A46D0231B271B069B46B1
:10033000254E01AD6F4403AB032202936B46DA7086
:1003400053461B0C2B7053461B0A6B7053462024DC
:10035000AB705B4664209C6100F084FF6B46012219
:10036000D91C1A4806F034FF01222900174806F06C
:100370002FFF6B460122591D144806F029FF6B46DA
:100380000122991D114806F023FF142300210F4874
:1003900002AA06F0EDFE5B465C6103AC21783000FA
:1003A000013404F0BDF9A742F8D10A2004F0C8F8DE
:1003B0000F239C46F023E2449B039A45BBD1044C97
:1003C000200004F00DF9FBE7F071001000C00340BD
:1003D000F871001010B504F0AFF90121022000F00F
:1003E0002DF80121032000F029F80121042000F05C
:1003F00025F80121052000F021F8052000F036F84D
:10040000D0232022094C1B065A6209495A61200058
:1004100006F0F8FDC723226806485A400833134007
:10042000054A136000F01EFFFFF772FF00C0034093
:1004300080841E008813000000D00340094A10B5D4
:1004400094464024830063441A68C00062408034AC
:1004500014408022520113431C60034B9C466044AD
:10046000416010BD04C00140004001400123D02282
:100470008340120693629361094A402194468300A7
:1004800063441A68C0004A40803111408022520102
:1004900013431960034B9C46052360444360704737
:1004A00004C001400040014070B5EFF3108C72B6FB
:1004B0000D4D2B68002BFCD0BFF35F8F0724CB08BA
:1004C000C618C05C01230C40A3401C00044003423A
:1004D00007D118433070BFF35F8F2C608CF3108806
:1004E00070BD100001F00EFB2C0100D0F8B547469E
:1004F000CE46884680B5EFF3108C72B6214D2C683D
:10050000002CFCD0BFF35F8F9A422CD8D408072769
:10051000055D061901241740BC402C421FD007215D
:100520000127894609E0D408055D06194C463900C3
:100530001440A1400C00294211D001329342F2D262
:1005400001204042BFF35F8F00220E4B1A608CF3F4
:10055000108800280FDBC0BCB946B046F8BD254363
:1005600010003570EEE7BFF35F8F00232B608CF334
:100570001088012040424346002BECD0089801F03F
:10058000C1FAC0462C0100D0024B18688007C00F8A
:100590007047C04600C006400021044B044ABFF328
:1005A0005F8F02C39342FAD17047C046000100D06A
:1005B000800100D0044A1078431CDBB2172B00D90D
:1005C000102313707047C0464004002010B5064B3E
:1005D000064C82B00100009318221F232000FFF771
:1005E00085FF02B010BDC046FC710010AC0D0020AC
:1005F00001238340002904D0034A1360034A136097
:100600007047034A1360FBE780E200E000E100E08E
:1006100080E100E001238340014A13607047C04637
:1006200000E200E0084B10309B688000C358002BAC
:1006300007D0064A00209B1A2F229A424041C0B29E
:1006400070470020FCE7C04600ED00E044040020B5
:10065000024B10309B688000C058704700ED00E0EE
:1006600070B50D00EFF3108672B60F4A1368002BB9
:10067000FCD0BFF35F8F0D4B10309B6884001B597B
:100680000B4A934203D09D4201D001F053FA074B2D
:100690009B681D51BFF35F8FBFF35F8F0022024B3A
:1006A0001A6086F3108870BD240100D000ED00E0D0
:1006B000CD010010F0B557464E46DE464546E0B542
:1006C00085B0060001911700EFF3108B72B6664AF1
:1006D0001368002BFCD0BFF35F8F0025634B5D5781
:1006E0009A46002D00DAA3E06B00614C02935B197F
:1006F0009B009846A146C1444B4652469B79103612
:1007000013705C4BB2009B68009299580B1B2F2B07
:1007100034D9594B994200D0A3E0029B42469C46F3
:10072000564B6544AD006353554B0232A218043B4F
:100730009B1A1B05534A5B0D651913436B80524B83
:100740000121AB80FF23AB71019BEF71AB604B4686
:100750000B431900474B009A9B689950BFF35F8F7A
:10076000BFF35F8F0022404B1A608BF3108805B0F7
:10077000F0BCBB46B246A946A046F0BD01200A0027
:100780008243D379BB422FD845464E4613003F499A
:100790001B1B5B415943090D384B6353384B0235E2
:1007A0006519043B5B1B1B05364D5B0D2B437380AA
:1007B0000426B446E044131F44441B1B1B055B0D79
:1007C0001D434B46997101999D8099604946DF719F
:1007D0002F4B01431360BDE75800C018800020185C
:1007E000C679BE422AD902000623D356002BF3DA7B
:1007F000101D8246BD20000203900426504676421A
:100800004E44361A3005400D844666461D489571A3
:1008100006439680029A94466544AA00A4181C4A8E
:10082000A3712260019B039AE771A280A36091E704
:1008300001F080F9002553465D5755E7101D8246AB
:1008400090884005001584464046D44466460430EE
:100850002018301AE0260005400D36023043039080
:10086000CBE701F067F958E7240100D0BE12002061
:100870004404002000ED00E0CD01001000A1FFFFC6
:100880007404002000E0FFFF00BDFFFFAAAA0000E3
:1008900001488047F0B5DE4657464E464546E0B52E
:1008A0000C0083B0EFF3108A72B65A4A1368002B1B
:1008B000FCD0BFF35F8F1022914681444A46564BCD
:1008C00096009B689D59554B98469D4205D0A54280
:1008D00016D0534FEB1B2F2B14D94F4B9B689D51B8
:1008E000BFF35F8FBFF35F8F00224A4B1A608AF31A
:1008F000108803B0F0BCBB46B246A946A046F0BD86
:100900001D00EAE7012383409B465A46454B1B687E
:100910001A4000925A46444B1A60BFF35F8FFFF7AC
:10092000A2FC0190002803D0814501D001F002F91A
:1009300001232A009A4393689C4208D15FE04B0050
:100940005B189B00FB189968A14211D01A00062180
:1009500051560029F3DA009B002B05D05A46334B41
:100960001A60304B1A60B8E75A462F4B1A60B4E74A
:1009700006215956002921DB4A00501880003C18F6
:100980008046A0689860E079D8710620205698715A
:10099000002824DBA488F81A6405241544440019AF
:1009A000E0240005400D240220439880204B52187B
:1009B00018789200BA1890711970CCE70199002943
:1009C00010D1FF3191711B49918019490A789A71B0
:1009D000194ADB1B5B415A43120D0A70BBE7BD206D
:1009E0000002E2E7154A1649D21A083A5002400DB1
:1009F00001439980134952080A43DA80ABE7062184
:100A0000515613000029B7DA019A002AEAD1454667
:100A1000DBE7C046240100D000ED00E0CD0100106E
:100A20004404002000E100E080E100E080E200E01A
:100A3000BE12002000BDFFFFAAAA00007E04002015
:100A400000F0FFFF00F8FFFFF8B5012504000543A3
:100A5000FFF709FCEFF3108C72B6214A1368002BE4
:100A6000FCD0BFF35F8F1F4E2100B7681E4A1F4B9B
:100A7000891A49414B431B0D59B28300F858A842CB
:100A80001CD00623D3568B421CD01223D3568B4244
:100A900022D01E23D3568B4220D02A23D3560320A4
:100AA0008B4210D0124B1A781970A271BFF35F8F6E
:100AB00000220B4B1A608CF31088F8BDB2680D4809
:100AC000D050EFE7002043001B189B00D218FF23F3
:100AD0009371094B9380E5E70120F4E70220F2E7E8
:100AE000240100D000ED00E044040020AAAA000088
:100AF000BE120020CD01001000BDFFFF054B064ACD
:100B00001360064A136053609360D36013615361AE
:100B1000936170478080808000E400E004E400E09E
:100B2000D02200B51206084B0100106883B01818D7
:100B3000064B002200930523FFF7D8FC002801DBB9
:100B40001F23181A03B000BDB8120020187200103D
:100B5000024B9C46614489000160704740000034AC
:100B600083680B4810B58446614462441201090150
:100B700059189B185C684A680120944201D802D039
:100B80000020C0B210BD1A680B689A42F9D8F7E786
:100B9000FFFFFF0F0A4B1968EFF3108072B60A6867
:100BA000002AFCD0BFF35F8F1B68BFF35F8F00226A
:100BB0001A6080F3108840BF002000217047C046B3
:100BC00088120020F8B5574645464E46DE46E0B549
:100BD00099460CAB1C780DAB1B78070090469A46E3
:100BE0000568002C44D1AC7B002C3BD06600296802
:100BF0003619033E89194B78AB73002B00D1EB7388
:100C000000238B704B700B702E4BE218BB681201E7
:100C10009B1842461A604A465A600A9A9A600B9A92
:100C2000DA6000238B704B700B706B7B9B46002B44
:100C300032D022005946A8686B68984700281DD01A
:100C40005B46584629685B005B448E19033BB070D5
:100C5000CA18CB5C002B00D073705B4614706B73AA
:100C60005C451AD0F0BCBB46B246A946A046F8BDCA
:100C7000660029683619033E8919C5E75B465B00A3
:100C80002A685B44033BD3189C709119925D002A3B
:100C900000D05A705B460B706C7342464B46387DF1
:100CA00000F024FC051E02D05346002B04D00E9BFE
:100CB000002BD7D01D70D5E72100386800F03EFE2C
:100CC000F5E7C046FFFFFF0FF0B5DE464E4657463C
:100CD00045460023E0B58DB00A936B4B8200D35894
:100CE0000B90994600239B464B46079300F09EFBD2
:100CF000079C06000F006268EFF3108572B6136858
:100D0000002BFCD022000794BFF35F8F2468637B25
:100D10009946002B66D092685C4B90464B441B0171
:100D2000984443461A685B6810001900801BB9415B
:100D300000295EDD0B9800F0D9FB002300269846C1
:100D400000279A46079C6368BFF35F8F5A461A6074
:100D500085F310885346002B08D10028C6D10DB06A
:100D6000F0BCBB46B246A946A046F0BD0A9B414630
:100D700018024B461843D047089009916268EFF378
:100D8000108572B61368002BFCD00794BFF35F8FF9
:100D90000899099A002A47DB114303D0079B1B6976
:100DA000002B5CD1079B1B68D97B002906D01A68F1
:100DB0004800411852184946033A51704A46DA73BE
:100DC0004B46079A013BD168CA5C0132CA545B4664
:100DD000079A13615368BFF35F8F5A461A6085F311
:100DE000108883E700230026984600279A460020B3
:100DF000A8E7002901D100289CD10021200000F0A3
:100E00001FFD43461E685F689B68079A9A464346E3
:100E1000DB689846D3684B44013B1B780A931B025E
:100E20000343136100208DE72369002BBAD0330000
:100E30003C005B1A94411A002300A74219D89F4234
:100E40001BD0594604910121039149460291414624
:100E50000191514607980091FFF7B4FEB7E700F003
:100E6000E5FA089A099B06000F0092197B41994206
:100E7000E5D901225242D317E3E79642E1D9012294
:100E80005242D317DDE7C0466C120020FFFFFF0F70
:100E9000F8B557464E464546DE46E0B5404D8146DC
:100EA0008A466A68EFF3108872B61368002BFCD08C
:100EB000BFF35F8F2E68B47B002C38D06700336897
:100EC0003F19033FDB195A78B273002A00D1F2733D
:100ED000344AA118AA6809015218494611605146BE
:100EE0005160314991600021D16099705970197039
:100EF000737B9B46002B36D022005946B06873683E
:100F00009847002821D05B46584631685B005B4417
:100F1000CF19033BB870CA18CB5C002B00D07B7094
:100F20005B46147073735C451ED0002627E06B6827
:100F3000BFF35F8F1C6088F3108801204042F0BC33
:100F4000BB46B246A946A046F8BD5B465B00326888
:100F50005B44033BD3189C70D119D25D002A00D0AA
:100F60005A705B460B7074734A465346287D00F0F6
:100F7000BDFA061ED9D02100286800F0DFFCEB681E
:100F80001B19013B19786B68BFF35F8F00221A6051
:100F900088F310880020002ED1D108022043CEE72C
:100FA0008C040020FFFFFF0F950B001010B5124CB2
:100FB0006368002B04D00A211048FFF7C9FD10BD5B
:100FC00023000F4A1021206800F052FB032000F09C
:100FD00021FA032000F0FAFA03200A4900F040FA4F
:100FE000FFF7E8FA084B9C46032360442375074B40
:100FF00080006060DC60DEE78C0400208812002046
:10100000610B0010C90C0010400000346C1200206D
:10101000004870478C040020F0B54E465746DE4627
:101020004546E0B585B0019310AB1B7806000393ED
:1010300000239A46994600927268EFF3108B72B6BD
:101040001368002BFCD0BFF35F8F3568AC7B002C9E
:1010500000D17FE067002B683F19033FDB195A7806
:10106000AA73002A00D1EA73524AA118B268090192
:10107000521800980199106051600E9991600F9973
:10108000D1604A469A705A701A706B7B9846002B52
:1010900000D176E022004146A8686B689847002896
:1010A00061D04346404629685B004344CF19033B67
:1010B000B870CA18CB5C002B00D07B70434614700C
:1010C0006B7344455ED0F3681B19013B1878736855
:1010D000BFF35F8F4A461A608BF310885346002B8C
:1010E00008D10002204305B0F0BCBB46B246A94679
:1010F000A046F0BD039B002B5AD00E9B00200F99F9
:101100009847030004000D000B4351D000290DDA6D
:101110000098019902000B00121BAB41994213D8B1
:101120003DD000920193039B9A4685E700F07EF93B
:1011300002000B00A4185D4100940195A94203D858
:10114000F1D100998A42EED901235B42DC1700936A
:101150000194E8E77368BFF35F8F1C608BF310881E
:1011600001204042BFE743465B002A684344033BFB
:10117000D3189C70D119D25D002A00D05A70434612
:101180000B706C73307D009A019B00F0AFF98246C2
:10119000002898D02100306800F0D0FB93E7009938
:1011A0009142BED901235B42DC1700930194BAE758
:1011B000002098E7FFFFFF0FF0B504000D000626A2
:1011C0007642F717C64636196F4100B58F4213D8DD
:1011D00010D000F02BF932003B00121A8B41002B8B
:1011E00014DC002B37D02900200000F029F980BC46
:1011F000B846F0BD8642ECD90026002700F016F96B
:1012000032003B00121A8B41002BEADD300039001E
:10121000FFF73EFE0028E6DB00239846BC460F4A57
:101220000F4F7B6A9C4504D8B96A8E42DBD99C4536
:10123000D9D11168EFF3108072B60B68002BFCD087
:10124000BFF35F8F1368BFF35F8F4146196080F370
:10125000108820BFE5E7002AC5D0D7E78812002014
:101260000040054070B5060000F0E0F8FA220400E6
:101270000D00002330000021920002F0D9FF001978
:1012800069418D4205D802D0FFF796FF70BD8442B8
:10129000FAD901204042C117F6E7C046F8B5CE465C
:1012A000474680B506000C00FFF7F2FD031E11DC77
:1012B000284A0020536A9C4203D8926A0130B24205
:1012C00003D3C0BCB946B046F8BDE31A5A1E9341D9
:1012D000D8B2F6E720BF204D6968EFF3108872B6E8
:1012E0000A68002AFCD0BFF35F8F2868D9B2427B1E
:1012F0008A4221D0FF2207681A40B9465700BC46EF
:101300004F4694446744033FBF78002F0FD0EF68E7
:101310001B0ABA18013A1278DBB29A4216D06B68EF
:10132000BFF35F8F00221A6088F31088C0E72A6934
:101330009342F4D12F61F2E7FF22EF681A40BA1806
:10134000013A1B0A1278DBB29A42E8D100F0F6FAB1
:10135000E5E7C046004005408C040020F0B5D646C5
:101360004F464646C0B5EFF305823F2313401800B1
:101370001038EFF3108C72B620490A68002AFCD0AE
:10138000BFF35F8F0122170087401D4C1600A24655
:1013900067631C4C2578A0462C00C440264022429E
:1013A00009D1BFF35F8F0E608CF31088E0BCBA46A2
:1013B000B146A846F0BD5246566A134A8400A25868
:1013C00096420ED34246114BBD43E3581570BFF30E
:1013D0005F8F00220A608CF31088002BE6D09847BC
:1013E000E4E70B4A9B00904643441A681A60BFF337
:1013F0005F8F00230B608CF31088D7E7280100D0A3
:1014000000400540C1120020941200209C0C0020D6
:10141000D03F054010B5034B01001800024AFFF70A
:1014200043F810BDBD12002034720010034B596AFE
:101430000A00986A596A8A42FAD17047004005400A
:10144000064A536A9942FCD807D1044B02E05A6A13
:10145000914202D19A6A8242F9D370470040054016
:1014600070B504000D00EFF3108672B61A4A1368C7
:10147000002BFCD0BFF35F8F002D1BD02000FFF7A7
:10148000E7F8164981420AD02000FFF7E9F8012168
:101490002000FFF7ADF80123A340114A1360114B60
:1014A000A400E550BFF35F8F00220B4B1A6086F358
:1014B000108870BD0121A1400A4BA200D5500A4BF3
:1014C00020001A788A4305491A70FFF7E3F90021D2
:1014D0002000FFF78DF8E5E7280100D05D1300102C
:1014E000386005409C0C0020C1120020F0B54F462A
:1014F000D6464646C0B507002F4C616A0D00A66A65
:10150000616AA942FAD18B4208D805D00120E0BC1B
:10151000BA46B146A846F0BDB242F7D9EFF3108AF9
:1015200072B6264801680029FCD0BFF35F8F012501
:10153000BD402349204C8846097889462943C9B2D1
:101540008C46414660460870391D890065630A5122
:101550001C49B8004350216A0020294219D0616A11
:101560000800A66A616A8142FAD18B4219D801D17A
:10157000B24216D8CC451DD00F4B1F221D625D63B1
:1015800001233A409340104A0120136043464A46E3
:101590001A70BFF35F8F0022084B1A608AF310881D
:1015A000B5E70020BFF35F8F0022044B1A608AF377
:1015B0001088ACE70120ECE700400540280100D08E
:1015C000C11200209412002080E200E0EFF3108CA2
:1015D00072B60A490B68002BFCD0BFF35F8F012362
:1015E0008340074A0748136202789A430270BFF3A8
:1015F0005F8F00230B608CF310887047280100D0A8
:1016000000400540C112002070B50500140016000E
:10161000002915D00C00002A12D080686B6898470A
:10162000296800280ED073009B196200033B121931
:10163000CB18033A9C7088188A5C002A15D1067072
:10164000200070BD63001B197200033B9219CB1878
:10165000033A9E7088188A5C002A02D10470340014
:10166000EEE75A7004703400EAE75A700670E7E754
:1016700030B583600023CCB24373013304734260FE
:101680008373C4730D000068012C06D9421C01331A
:10169000DBB2137003329C42F9D1FF2129404B0089
:1016A0005B18C01800230338437030BDF8B505003F
:1016B0000C1E07D0630001681B19033BCB185A7836
:1016C000002A01D12000F8BD500080180338091805
:1016D00000204F784870210058702800FFF794FFD1
:1016E000390006002800FFF7E1FF0400002EE9D0D2
:1016F000002826D031002200A8686B689847296826
:1017000000280FD063001B197200033B9219CB18FD
:10171000033A9E7088188A5C002A00D05A700470C0
:101720003400CFE773009B196200033B1219CB18FA
:10173000033A9C7088188A5C002A00D05A700670A0
:10174000C0E73400BEE7C046F0B557464546DE4622
:101750004E46E0B50D006B0001685B19DF1E04000A
:10176000C85D83B00192CA1900284CD043001B18F1
:10177000033BCB185E78B446002E16D1019E002E96
:101780003ED0E67B002E04D073009B19CB18033BA0
:101790005D70E57300282FD10023537003B0F0BCB7
:1017A000BB46B246A946A046F0BD72006244033A69
:1017B0008A18517888460021517089465970320044
:1017C00001002000FFF720FF43468246002B07D090
:1017D0005B0021684344033BCB185A78002A16D19A
:1017E000424651462000FFF70FFF2168019BCA19AE
:1017F000002BC6D10028CFD043001B18033BCB18C9
:1018000000219970C8E7019B002BBAD1C4E75000B2
:10181000801803380918487883464846487058703D
:1018200041462000FFF7F0FE594680462000FFF7B2
:101830003DFF414602002000FFF7E6FE8046CFE76D
:10184000F0B557464546DE464E46E0B583B00191B9
:10185000457B04006B0000685B19DF1EC15DC21987
:1018600000294ED04B005B18033BC3185E78B4468A
:10187000002E18D1019E002E40D0E67B002E04D011
:1018800073009B19C318033B5D70E573002931D1C8
:10189000002328005370617303B0F0BCBB46B2460E
:1018A000A946A046F0BD72006244033A82185078FF
:1018B0008046002050708146587032002000FFF7AB
:1018C000A3FE43468246002B07D05B0021684344B9
:1018D000033BCB185A78002A17D1424651462000C4
:1018E000FFF792FE019B01002068C219002BC4D1B2
:1018F0000029CDD04B005B18033BC3180020987023
:10190000C6E7019B002BB8D1C2E75000801803380E
:101910000918487883464846487058704146200068
:10192000FFF772FE594680462000FFF7BFFE414692
:1019300002002000FFF768FE8046CEE770B5040085
:1019400000292CD0437B8B422ED0056848004018DC
:10195000033828188278002A21D053009B18033BB3
:10196000EA5CEE188A4202D11BE0002A08D053003C
:101970009B18033BEB185A788A42F6D142785A708A
:1019800000230122837043702000FFF7DDFE617B9E
:1019900002002000FFF738FE6073012000E0002005
:1019A00070BD43783370EBE701221900FFF7CCFEDE
:1019B00060730120F4E7C04610B50400FEF7FAFD9D
:1019C00001002000FFF7C4F8FF232371BFF35F8FEE
:1019D00010BDC04610B50400FEF7ECFD010020006C
:1019E000FFF7B6F8FF23A380BFF35F8F10BDC0469B
:1019F00010B504000120FEF7E9FD044B9C4660444D
:101A000080002060BFF35F8F10BDC04640000034EF
:101A10002C4B2D4A70B51A602C4A2D4B2D491A605B
:101A200014008B689C43FBD12B4D2C4EB54208D241
:101A3000013E761BB60808CD984723000134B34217
:101A4000F9D100F07DF8264A214B1A60214A9368AB
:101A5000DB43DB01DD09002BF9D14022214B224C75
:101A6000224E9A675A671A67DA66B44208D2236828
:101A70002000002B20D00834FFF7ACFFB442F6D38F
:101A80001B4C1C4EC022B168200002F041FCB46027
:101A9000FEF782FDFFF732F8FFF788FA164C174E73
:101AA000B44208D2013E361BB60808CC98472B003A
:101AB00001359E42F9D170BD0834FFF77DFFB44275
:101AC000D5D3DDE700E00040BFCDFBFEFE7F3C004C
:101AD00000F0004000C0004028050020380500202C
:101AE000FFFFFF0100F00140200500202805002035
:101AF0000000002000ED00E0380500204005002037
:101B000000BEFDE70FB400B5084883B002F068FDE1
:101B1000049B002B07D005A91800019101F0E8FCF7
:101B2000034802F05DFD00BEFDE7C046587200109C
:101B30006872001010B50148FFF7E4FF6C720010E6
:101B400010B50C2082B000F0ADF9FEF71DFD0028A5
:101B50000ED0854B854A1A605A609A60DA601A6125
:101B60005A619A61DA611A62814A5A6202B010BD02
:101B7000804CA06700F0ECF901227F4B1A60636C87
:101B8000012BFCD103227D4B1A607A4A936B012B07
:101B9000FCD1013301217A4A7A480093043300F0E2
:101BA0002DF90523784A00930121784800F026F9A1
:101BB000774B5A68FF2A02D8802252005A6080224E
:101BC0006E4B694C12011A602169002905D06069C9
:101BD00001F008FD01300138FDD1E0226C4B6D4869
:101BE00019680A40026002221968514001320A4015
:101BF000042102609A681142FCD08021664A0901E2
:101C00001160802252005A60644B2361644B596812
:101C1000FF2900D85A6003220121574B1A60604AFD
:101C200093681942FCD0E023106803405D480360CC
:101C3000126803234A4002211340594A0360936803
:101C40001942FCD08021584B090119608021574B63
:101C5000490051606361564B5A68FF2A00D85960A9
:101C60008022544B12011A60E169002905D0606995
:101C700001F0B8FC01300138FDD1E0234C4A116875
:101C80000B404D490B6080214C4B090119608021AC
:101C9000364B49005160E361494B5A68FF2A00D82E
:101CA00059608022474B12011A60216A002905D031
:101CB000606901F097FC01300138FDD1E023404A12
:101CC00011680B4040490B608021404B09011960AD
:101CD00080235B0053608022244BD20223623C4B62
:101CE0005968914200D25A6080223A4B12011A6020
:101CF000616A002905D0606901F074FC0130013887
:101D0000FDD1E023324A11680B4033490B6080213A
:101D1000324B090119608023DB025360144B63626C
:101D20002F4B5A68FF2A02D8802252005A60802224
:101D30002C4B12011A60A169002905D0606901F0DD
:101D400051FC01300138FDD1E023254A11680B40D8
:101D500025490B608021254B0901196080235B0018
:101D60005360124BA36101E7B00D0020006CDC0250
:101D70001BB70000008000403CB0004030B0004085
:101D8000002F685900800240008C864700C0024046
:101D9000308000403090004030A00040001BB70071
:101DA0003C8000403C9000403CA0004040597307FC
:101DB0005480004054B000405490004054A0004073
:101DC0006080004060B000406090004060A0004033
:101DD0006C8000406CB000406C9000406CA00040F3
:101DE0004880004048B000404890004048A0004073
:101DF000014B8000C0587047B00D0020F8B50400BA
:101E00000C2017001D000E0001F0ECFB43011B1A13
:101E10009901C91AC90009188901380001F0E2FBCB
:101E2000069B29041B0319432368002B20DB194B55
:101E3000194DE3185A4253418022520194461B0324
:101E4000164A63441360164A13601F00AA6897433A
:101E5000FBD1C023221D9B01134321222660A060D9
:101E60001A602268002AFCDA0822E1601A60F8BDD4
:101E70003F2322681340B342D9D1A3681B051B0D31
:101E80008342D4D1EE22E368D20213408B42CED1FA
:101E9000EDE7C0460040FDBF00C0004000E000404C
:101EA00000F000408023024A9B000343D362704746
:101EB0000080054010B5140080221C4BD2051A602A
:101EC00000281AD001231A4A18431A4BDA611A4A19
:101ED00042401A62596298628022144BD2051A60FD
:101EE0001649174A1160E022D2041A60002C07D16B
:101EF0008022144B12061A6010BD0E4BD861EBE71E
:101F000063011B1B9A008023121912015B049A4281
:101F100008D20D4B1A60074B5A608022094BD2053C
:101F20001A60E9E7084B094A1A60F4E700B0054077
:101F3000D3C007B0008005402D3FF84FFCFF0100E3
:101F40000820014000A005404C120020FFFFFF00C8
:101F5000AA23064A1B0113602F230549D360054BB2
:101F600019605368002BFCDA7047C04600400240FD
:101F700000B0FA00006002407047C046F8B557460E
:101F80004546DE464E46E0B598460A9B06009A4610
:101F90000D9B0F00934615009B0710D10B9B0C9ACD
:101FA00093420CD213005C460B9A9D1A5D442200AA
:101FB0004346013439002020B047A542F7D10B9C9D
:101FC0006319002C09D01D0053462A1B013C185DE3
:101FD00039004346B047002CF6D10D9B9B070ED528
:101FE0005B46EC1A0C9BA34209D999462A0043464A
:101FF000390020200134B0470135A145F6D828002A
:10200000F0BCBB46B246A946A046F8BDF0B54F4667
:102010004646D646C0B584B098460EAB1B78129F94
:10202000994694460D9C109B119EBA0725D4002E0C
:1020300061D19C4200D3C0E001223A4092461F2C5D
:1020400000D9B9E00C9A551E302201E0202C03D0B3
:1020500001342A55A342F9D85246002A0DD0A6428F
:102060000BD90C9A551E3022202C02D155E0202C81
:1020700053D001342A55B442F9D1FA062DD57A0548
:1020800054D4002C4ED10F9B102B00D188E00F9B15
:10209000022B19D030230C9A012413704B46002BCD
:1020A00020D02D230C9A135501340C9B62460093CB
:1020B0000397434602960194FFF760FF04B0E0BC2B
:1020C000BA46B146A846F0BD01240C9A603313709D
:1020D00030220C9B1B191A700134202CE5D04B4682
:1020E000002BDED17B0730D43B07DED520230C9AB2
:1020F00013550134D9E7012215003D40AA463A4262
:102100001CD04A46002A2BD10C323A4228D19C429C
:10211000A5D21F2C96D9202E15D92024FA06C4D575
:102120007A0503D4A3421DD0B4421BD00F9B102BC1
:1021300023D0022B0ED0202CB7D0C9E79C429CD2D2
:102140001F2C00D87EE7202497E72B230C9A1355E9
:102150000134AAE7202CA8D00C9B1B19013438E0CD
:10216000013ED4E7631E012C00D18CE70F9A102AA0
:1021700025D0022A2AD01C00AAE7BB0607D4202CAF
:1021800093D00C9B1A19013478231370D3E7202CB9
:1021900000D18AE758220C9B1B191A700134CAE738
:1021A000BB0604D478230C9A0124137090E75823BB
:1021B0000C9A012413708BE7202400265DE7023C73
:1021C000BA06E7D40C9A12191C00DDE70C9A924665
:1021D000534462221A70AEE710B5002800D110BD3A
:1021E00002F0AEF9FBE7C0460B0010B5002802D0A4
:1021F00049681B68984710BDF0B5DE4657464E4605
:102200004546E0B59BB09B46249B89469846259B56
:102210000B900C924046424619009A4601F0B3FCDE
:10222000002800D0D8E0012240465146774B524268
:1022300001F0A4FC002800D0CEE001224046514627
:10224000734B524201F084FC002800D0C4E000220D
:1022500000234046514601F07BFC002800D0B9E144
:10226000424653460A9209938023289ADB001A407B
:102270000E92289A1A4201D1062326930A9A099BA4
:102280001600134300D0C7E0289B002500261B053D
:1022900000D49BE100230D93269A0D9B9A4200DC0B
:1022A0009FE1D31A013B26938023289ADB001A432F
:1022B0000023002728920D93279B0024BB4200D9BE
:1022C000DC1B0223289A1A400E92289A134203D04C
:1022D0007B427B415B421C400D9B002B07D00A9840
:1022E00009992A00330001F0D2FB0A9009910022DB
:1022F00000234046514601F02BFC002805D08020E9
:1023000000068446099961440991289A414B0B9D26
:1023100013400493269B0A9A0293099B039400920C
:10232000019349465B4628000C9A00F08BF90400A3
:10233000002F62D0289B220098061F23C0179843C5
:10234000631C984649465B466530A8470D9A0025B0
:10235000D317D4185C40D30F9A46013F01E0202DDB
:1023600013D00AAA94461F23200063440A21013592
:102370005E1901F037F93031317020000A2101F087
:1023800031F926000400092EE9D80523069300231D
:1023900004930A330393534605970B9F029312ABA2
:1023A000009342465B46494638000195FFF72EFEF2
:1023B0000E9B0400002B20D00C9BC51A279BAB4220
:1023C0001BD91E0022005B46494620200135B84734
:1023D0000134AE42F6D810E0289B42460493279B76
:1023E00049460393269B0B98029353460092019310
:1023F0005B460C9A00F026F9040020001BB0F0BCEC
:10240000BB46B246A946A046F0BDC046FFFFEF7FDF
:10241000FFFFEFFFFFF7FFFF734B099F9C4678001C
:10242000400D604401F0C2FB704A714B01F04DFB5E
:10243000704A714B01F022FB3B03704A1B0B1A439D
:1024400004000D00300011006D4B002201F00DFB67
:102450006C4A6D4B01F039FB02000B002000290093
:1024600001F00CFB01F0BAFB0D9001F09FFB674AF5
:10247000674B04000D0001F028FB0022654B01F0C2
:10248000FDFA01F0ABFB644A0600644B2000290012
:1024900001F01BFB040030000D000F9601F086FBDD
:1024A0005F4A604B01F011FB02000B002000290085
:1024B00001F0DBFA02000B0006000F0001F005FB43
:1024C000320004000D003B003000390001F0D6FA64
:1024D000002210901191544B2000290001F0D7FAEE
:1024E0000022524B01F0CAFA02000B002000290022
:1024F00001F0CDFA00224E4B01F0C0FA02000B00B1
:102500002000290001F0C3FA0D00802104003200F0
:102510003B000020C90501F0A8FA02000B002000D2
:10252000290001F0ABFA02000B001098119901F09C
:10253000AEFA0022314B01F0A1FA3E4B0F9C9C46B3
:1025400064440022230501F0C0FA05000E000200D9
:102550000B000A98099901F0FBFA00280AD00D9B9C
:102560002800013B31000D930022304B01F08FFA1F
:1025700005000E00C6270D992B0063318F42BF4125
:1025800028997F420437090500D495E6334300D1EA
:1025900082E6099C284A2100284B0A9801F0E6FAB5
:1025A000002808D000222100254B0A9801F0D0FA1B
:1025B000002800D070E6269B002B00D17CE60E9B05
:1025C0005A1E9341269AD31A269375E600230427B0
:1025D0000D9371E643460A9380231B0653440993E7
:1025E00042E6002326935FE601FCFFFFFB799F5044
:1025F0001344D33FB3C8608B288AC63F0000F03F26
:102600000000F83F61436F63A787D23F71A3790948
:102610004F930A400000E03F1655B5BBB16B024036
:10262000EF39FAFE422EE63F00002C400000244025
:1026300000001840FF0300002D431CEBE2361A3F58
:1026400080842E41F0B54E46DE4657464546E0B5FD
:1026500097B09946209E219F229B834698460791DA
:102660000C923B0032003000390001F08CFA002857
:1026700000D0ADE1012230003900CC4B524201F0D4
:1026800067FA002800D003E1012230003900C84B6E
:10269000524201F073FA002800D0D9E00022300045
:1026A0003900C44B01F06AFA002800D0BBE00022D8
:1026B00030003900C04B01F04BFA002800D0B2E0E6
:1026C000002200233000390001F042FA002800D037
:1026D000D3E000230D93249B5B0501D40623984689
:1026E00008AB9C461722002430234146624404E094
:1026F000013413550139202C01D00929F8D8884616
:102700003000390001F06AFA4246AC4BD2009B1807
:102710001A685B6805000892099301F047FA020005
:102720000B003000390001F0A0F9089A099B01F074
:10273000CCF90A900B9101F075FA824601F032FA59
:1027400002000B000A980B9901F08FF900229C4BB4
:102750000A900B9101F012FA002800D1E2E0012367
:102760009C46E244504601F01DFA02000B00089816
:10277000099901F0F3F9002802D000239A460135A7
:102780004346002B00D18BE008AB17269C460895EA
:102790006644554614E001235B4243440A21280065
:1027A0009A4600F01FFF0134303137193970280084
:1027B0000A2100F017FF092D00D8D0E0D04605000F
:1027C000202CE8D10EAB98460323249A1340012B0A
:1027D00000D0E8E0239A2023002A1DD00D9A002A79
:1027E00000D0FDE024990C320A4215D0239A013A18
:1027F0002392239A9A4200D805E108AA9446172109
:1028000030226144202B07D023980133CA548342DD
:1028100000D1E9E0202BF7D1249A01930392239A67
:10282000434602921EE0249B58460493239B009645
:102830000197039343460C9A029307994B46FFF77F
:10284000DBFC17B0F0BCBB46B246A946A046F0BDC3
:10285000249B5B070ED403225A4B249901920391C7
:1028600023990291009358464B460C9A0799FFF71B
:1028700085FBE6E70422544BEFE73B0032000020E3
:10288000002101F0F2F8012306000F000D9322E76A
:10289000249B0393239B0293042301934B4BE1E777
:1028A000280001F083F902000B003000390001F02C
:1028B000DCF8434B002206000F0001F049F90EAB93
:1028C000984600280AD10022300039003C4B01F024
:1028D00055F9002802D1EB0700D50135202C00D195
:1028E00072E708AA94461723280063440A2101349A
:1028F0001E1900F04FFE3031280031700A2100F01F
:1029000049FE051EEAD10323249A1340012B6DD002
:10291000202C48D00D9B002B14D02D224146631C47
:102920000A5579E700220A980B99254B01F010F916
:10293000002800D024E75346002B30D101239C46C9
:10294000E2441DE7249B5B0724D4249A230012074A
:1029500000D461E72022414601330A555CE757461F
:10296000089D202C00D12DE7220030214046002F69
:1029700009D00132B154202A00D123E7831A013B48
:10298000E318002BF5D10EAB98462E234146541C7C
:102990008B54A3E72B224146631C0A553CE7DB0717
:1029A00000D4EDE6CAE7202336E7C046FFFFEFFF7D
:1029B000FFFFEF7F65CDCD4165CDCDC130740010F7
:1029C0000000E03F807200107872001088720010E2
:1029D000249B0393239B0293032301930C4B41E716
:1029E000239A013A239217E7040091E7239B002BD7
:1029F0008ED00D9B002B08D10C222499230011426C
:102A000000D1F6E6F2E61C0082E72300EEE6C046BF
:102A100084720010F0B5DE4657464E464546E0B596
:102A2000A1B01C002A9B92460993B94AB94B814632
:102A30008B461A60002900D12BE12078002700285E
:102A400000D12DE1B44B5E460893B44B0C9309E0E2
:102A50003A00534631007D1CC8472F0001342078CE
:102A6000002871D02528F3D110239B460C3B9846B3
:102A7000023B00229C460134207825000300203BC5
:102A8000DBB2102B03D808999B00CB589F4603005C
:102A9000303B092B6BD9002398462A2800D18AE0C5
:102AA00000230A932E2800D176E00300683BDBB2B6
:102AB000122B1CD89A499B00CB589F460123013406
:102AC0001A43D9E7634601341A43D5E74346013434
:102AD0001A43D1E75B4601341A43CDE7082301349A
:102AE0001A43C9E780235B0068781A4301356728D9
:102AF0000AD824281DD90300253BDBB2422B18D865
:102B00000C999B00CB589F460300693BDBB20F2B0F
:102B10000FD80121834C9940A4460C400B94644685
:102B2000214200D002E20A2B00D1E1E0072B00D1C4
:102B3000B8E07B1C98463A00534631006C1CC847ED
:102B40002078474600288DD1B3463C00BA4501D8CD
:102B500053465F1E53463A0059460020C84720009E
:102B600021B0F0BCBB46B246A946A046F0BD00234A
:102B700001009800C0180135400040182978030072
:102B800008003038303B0928F3D998460023080064
:102B90000A932E2800D088E780236878DB001A4348
:102BA0000300303B691C092B00D807E12A2800D11B
:102BB00016E10D0079E7099B02CB8846002903DB6B
:102BC00060780993651C6BE702210A43414649423C
:102BD000884660780993651C62E768786C2800D1A4
:102BE00023E280235B001A43013580E780239B00AA
:102BF00068781A4301357AE76878682800D11AE2C4
:102C0000802301351A4372E7462800D18BE1072162
:102C1000099B0492424607338B43190003920A9A98
:102C2000484602920CC90092019309913A0053461A
:102C30003100FFF707FD6C1C070010E77B1C98466E
:102C40003A00534631002520C84747466C1C06E72A
:102C5000920700D431E2099B3A0001CB31009B4638
:102C6000C0B25346C84743467C1C4744012B00D89A
:102C7000FBE2A8464D462200534601343100202095
:102C8000A847BC42F7D1A9465B46454609936C1C50
:102C9000E5E6254B207899460027002800D0D1E6AC
:102CA000002453E7099B190008C98846002B00D16E
:102CB000A6E021210A43934610A98C461F220F212A
:102CC000624409958C4615000B9C02E0202C0CD028
:102CD00013006046184001003731092800D8073931
:102CE000013429551A090F2BF0D8099D0B9490E057
:102CF000099B02CB12930A9B8B46002B7AD1087852
:102D00000221494200281AD001315C4659440FE0A3
:102D1000152A001048120020907200102073001035
:102D2000D472001041900000791F00108C4203D033
:102D300063780134002BF9D15B46E31A0B938023AF
:102D40001100DB00194009911A4204D00A9B0B992B
:102D5000994200D90B930223190011400D9113429F
:102D600000D18BE1002800D173E1099B002B00D139
:102D700042E10A9B3A009C465B46BC44DB1B64462E
:102D80009B464B460994A9461D0009E05346310075
:102D9000571CA8475B46D85D002800D155E13A0092
:102DA0009442F3D12B004D469946099F0D9B002B71
:102DB00000D04EE1129B6C1C099350E600230400E6
:102DC0009800C0180131400000190C780300200061
:102DD0003038303B0928F3D920000D000A9364E60F
:102DE000099B023501CBC143C91708400A900993DA
:102DF00028785AE608780028A1D00A9B591E83E754
:102E0000102110008843113108438346520500D435
:102E100052E75B460693082305930A9B3A00049306
:102E200010230393002302930B9B3100019318ABF3
:102E3000009348465346FFF7E9F8434607006C1CE9
:102E400009930CE6202301009943472904D18023EC
:102E50001B011A4302239843452801D120231A431A
:102E60000721099B0492424607338B4319000392C2
:102E70000A9A484602920CC90092019309913A00BD
:102E800053463100FFF7B8F96C1C0700E7E56228EC
:102E900000D1F6E16F2800D132E1582800D1CFE00F
:102EA00010239A43063B0D93692800D024E10B922E
:102EB000530546D501230B9A9A430B92692840D0BB
:102EC00064283ED00B9A802311009B0019408B464A
:102ED0001A4200D0DCE1802314005B001C401A423F
:102EE00000D07BE213005B0600D48BE1FF22099B3C
:102EF00002CB11408B4609935B46002B00D08CE13E
:102F00000B9A1033110099430B91520500D484E1C0
:102F100000240B9B0693434605930A9B04930D9B49
:102F20000393002361E120231A4370E610230D93DD
:102F30007828ACD10C23110099430B915205B9D4D8
:102F4000BCE70B9A802311009B0019408B461A4264
:102F500000D0D8E0802314005B001C401A4200D04F
:102F6000E2E113005B0600D527E1130009991B0677
:102F700000D495E208C91BB2D8171A18424092B281
:102F800009919346DA0F1392002B09D18023102266
:102F90000B99DB000B4091430B91002B00D01BE100
:102FA0000B9A6123920600D54123DBB210A90A3B9C
:102FB0001F228C46129343466244A84614970D9DE7
:102FC0005F461593B34616000AE03033DBB2013496
:102FD0003355AF4200D24EE1202C00D14BE1070027
:102FE0002900380000F0FEFACBB20929EDD9129A77
:102FF00094466344DBB2EAE75B46DB1B9B460B9BD4
:103000004C4699465346AA461D003A002B00310013
:10301000A0475B460137D85D0028F6D14B460B939D
:103020002B00A14655469A46C0E6C0239B00A878CF
:103030001A4302355BE5C023A8781A43023556E5EA
:1030400020231A43103B0D9374E72B004D469946FD
:10305000ACE60B9BBB46984500D8ABE647445C46C4
:10306000A8464D46FF1A2200534601343100202065
:10307000A847BC42F7D1A94645469BE60B9A531C8C
:10308000904500D822E24346DB199C1A4B46A946DC
:103090001D003A005346013731002020A847A742BF
:1030A000F7D12B004D469946434601330B935B46BF
:1030B0001878002800D058E67CE64346012B00D85B
:1030C00002E27C1E4444A8464D463A00534601376E
:1030D00031002020A847A742F7D1A9464546099BC1
:1030E000220001CB31009846C0B25346C847434640
:1030F000671C09936C1CB2E4642800D1D7E619E779
:1031000008230D9316E70722099B073393430132E7
:1031100094469C44624609920CCB9C46DB17109364
:10312000119310981199030053400E9364460B00BD
:1031300063400F930E9B0F9C1B1A8C410E930F94B0
:103140006346DB0F139300239B4663461A433BD031
:103150000B9A6123920600D54123DBB20A3B1293FE
:10316000434610A91F228C46002415934B46624407
:10317000B1461497169527000E9C0F9D90460D9E04
:1031800017930CE03032D2B243460137DA55AB45E3
:1031900000D177E1202F00D177E104000D0032004B
:1031A00000232000290000F05FFAD2B2092AE9D9F1
:1031B000129B9C466244D2B2E6E7FF22099908C9F5
:1031C00013401A000991DCE60B9A10231100994371
:1031D00000240B915205BBD50B9B069343460593E8
:1031E0000A9B04930D9B0393139B029318AB3A0025
:1031F00001940093310053464846FEF707FF6C1CCC
:1032000007002CE413001B0600D458E1099B04CBF3
:103210001204120C934609936EE60B9A61239206F0
:1032200000D5412310A91F228C46DBB262440A3B21
:10323000139714965F461600AB4612930D9D08E057
:103240003033DBB201343355AF421DD3202C1BD0B9
:1032500007002900380000F0C5F9CBB20929EFD9E1
:10326000129A94466344DBB2ECE75B46270009936D
:103270006C1CFFF7F4FB159B45465E469846149F71
:10328000AAE702230D9355E65D46139F149E40E680
:103290000722099B07339343013294469C446246BC
:1032A00009921A685B6810009B4613005A46134344
:1032B00007D10B9A1033110099430B91520500D599
:1032C00026E60B9A6123920600D54123DBB210A9B2
:1032D0000A3B1F228C46129343466244139715956E
:1032E00000245D460700B34690460D9E14930DE002
:1032F0003032D2B2434601341A550023AB4200D1DA
:10330000D4E0202C00D1D4E007000D0032000023CF
:103310003800290000F0A8F9D2B2092AE8D9129B96
:103320009C466244D2B2E5E7099B1A0008CA15928E
:10333000DA179C185440DA0F1492002B08D180231E
:1033400010220B99DB000B4091430B91002B2BD1EA
:103350000B9A6123920600D5412310A91F228C46A7
:10336000DBB262440A3B129713965F461600AB46E7
:1033700009930D9D08E03033DBB20137F355AC42C1
:103380000ED3202F0CD004002900200000F02AF9D1
:10339000CBB20929EFD9099A94466344DBB2ECE732
:1033A0005D46139EBB46129F0B9B3A000693434615
:1033B00005930A9B310004930D9B48460393149B8D
:1033C0006C1C02935B46019318AB00935346FEF7C7
:1033D0001DFE159B07000993FFF741FB099B10CBCE
:1033E0001493002C08D18023DB001100134010221D
:1033F00091430B91002B2BD10B9A6123920600D5A0
:10340000412310A91F228C46DBB262440A3B12976B
:1034100013965F461600AB4609930D9D08E03033C6
:10342000DBB20137F355AC420ED3202F0CD0040091
:103430002900200000F0D6F8CBB20929EFD9099A6B
:1034400094466344DBB2ECE75D46139EBB46129F95
:103450000B9B3A000693434605930A9B3100049365
:103460000D9B48460393002302935B46019318ABE0
:1034700000935346FEF7CAFD149B070009936C1C8A
:10348000FFF7EDFAA64200D884E6159B0E940F953F
:103490009846179B3C004E46169D9946149F9BE606
:1034A00008C9D8171A18424009916AE5BE4200D8E7
:1034B00027E7149B5E469846139F159D29E5099BB7
:1034C00004CB9346099317E53C0008E60B93F0E51F
:1034D00000B585B0039101210290009303481300C9
:1034E0004A4202A9FFF796FA05B000BDE921001093
:1034F00010B5094A0300146884B0002C08D00122DA
:1035000000910648524203A9A047012004B010BD13
:1035100001F066F80020F9E748120020D9210010D8
:1035200001480421014B1847C00400205135001008
:10353000142310B50100188804331B88984710BD68
:10354000162310B50100188802331B88984710BD58
:10355000F8B54746CE4680B50F1E19D014239946BC
:10356000043304000025012698464B46188843463C
:1035700021681B88984701C4431E98410135404289
:103580000640AF42F1D13000C0BCB946B046F8BDEC
:103590000126F8E7124A936F9B0815D29066D16610
:1035A000002905D0FFE7FFE7FFE7516F106F704775
:1035B00004B580210906C2175140002800D0C84335
:1035C00003F0EEFD002104BDF0B5146E556E576F8B
:1035D000166FFFF7E3FF1466556657671667F0BD71
:1035E000000000D0114A936F9B0813D210665166F9
:1035F000002905D0FFE7FFE7FFE7516F106F704725
:1036000004B5002801D00020C04303F0C9FD00210B
:1036100004BDC046F0B5146E556E576F166FFFF7B8
:10362000E5FF1466556657671667F0BD000000D0C9
:1036300094464E4A926F9208624601D230E0C046EC
:10364000F0B54A4EB56F6D08FCD3346E756E776F6A
:10365000366F00F025F89446444A1466556657675D
:1036600016676246F0BDC0469446404A926F920883
:10367000624601D258E0C046F0B53C4EB56F6D08C9
:10368000FCD3346E756E776F366F00F04DF894464C
:10369000364A14665566576716676246F0BDC046DF
:1036A000002B24DB11D000293EDA00B5C94340428B
:1036B00000D1013100F038F8C943404200D1013156
:1036C000DB43524200D1013300BD002AEBD1002878
:1036D00001D1002905D00020C90FC90701D1C0437D
:1036E000410800B503F054FD0022002300BD00B5E1
:1036F00000290ADBDB43524200D1013300F014F809
:10370000C943404200D1013100BDC943404200D10C
:103710000131DB43524200D1013300F005F8DB43B5
:10372000524200D1013300BD002923D1002B18D112
:10373000002A0CD0BC460D4F38667A660021002363
:10374000FFE7FFE7FFE77A6F386F674670470028AB
:1037500001D00748010000B503F01AFD0022002344
:1037600000BD02000B00002000217047000000D0C7
:10377000FFFFFFFF002B00D0BFE0130C28D1002A71
:10378000E7D080B4114F39667A66FFE7FFE730B4BF
:10379000040C7B6F396F1B0423433B667A66FFE79B
:1037A000FFE7FFE7C04684B27B6F3D6F1B042343F6
:1037B0003B667A66FFE7FFE7C04600232C042D0C2A
:1037C0007A6F386F00196941B0BC7047000000D0B3
:1037D000F0B594460025140E01D112020835140FDD
:1037E00001D112010435940F01D192000235D40F9A
:1037F00001D152000135D40B0134254F7C66254C94
:103800003C660E0C93B2FFE7FFE7FFE73C6F6643B1
:10381000360C7703BE467343DF0B5B04C01AB94115
:10382000130C7343DB18C91ACE086643360CB64432
:1038300093B273431F0F1B01C01AB941130C73439A
:103840001F0B1B05C01AB941860D8F023E4366430C
:10385000360C092D24DB520A7243801A7703460A7C
:103860006643360C16235B1BDE40DF40BF196446FF
:103870006643821B7046043506330100D940A840D8
:10388000C01900D30131A24206D20023F0BD0000CE
:10389000000000D0FFFFFFFF121B0130F3D3F1E760
:1038A00009277F1BFE406446A2B27243801A00D2F1
:1038B0000139220C7243130C1204821A99410B0035
:1038C0007046043513370100F940A840801900D331
:1038D0000131002B02D1A2420AD2F0BD013000D347
:1038E0000131121BFAD2013BF8D1A24200D2F0BD45
:1038F000013000D30131121BF7E7F0B51C0C00D0EA
:1039000080E00CB400251C0A04D11B02160E3343C0
:10391000120208351C0B04D11B01160F3343120190
:1039200004359C0B04D19B00960F33439200023563
:10393000DC0B02D192185B4101351C0097186441E1
:103940000134464F7C66464C3C660E0CFFE7FFE7B1
:10395000FFE7C0463C6F6643360C7703BE4697B21E
:103960007743C01B00D20139C01B00D201399FB27E
:103970007743C91BC91B170C77437E04FF0B801BC1
:10398000B941CE086643360C0C2D33DBB644120B1E
:103990001F053A431B0B97B27743C01B00D2013976
:1039A0009FB27743C91B170C77433E043F0C801B23
:1039B000B941860D8F023E43664329277F1BFE4097
:1039C0000C3D7746AF40BF1930BCA2B2ABB27243D8
:1039D0007343801A9941220C7243130C1204801A0B
:1039E000994102000B000137001BA941F9D2781E52
:1039F0000021F0BD0C277F1BFE4077467F0BAF40B8
:103A0000FF19E0E700245D1C07D0144F7D6639667E
:103A1000FFE7FFE7FFE7FFE73C6F95B29EB2654324
:103A20006643401BB141150C1E0C654366433604CA
:103A30002F0C3E432D04401BB141994204D2020099
:103A40000B0020000021F0BD01D19042F7D3801A75
:103A5000994101349942F2D3F6E70000000000D00A
:103A6000FFFFFFFF48404140484018B41B4B5B68D4
:103A7000FC46019308BD04DF033D001018B4174B4A
:103A80001B68FC46019308BD00DF0D3D0010944605
:103A9000134A926F920809D2624618B40F4BDB6842
:103AA000FC46019308BD0CDFC53F00100C4AF0B581
:103AB000146E556E576F166F6246FFF7EEFF084A99
:103AC0001466556657671667F0BD18B4034B9B68BC
:103AD000FC46019308BD08DF693E0010480600203F
:103AE000000000D0FFB550404240504059404B408C
:103AF000594000E0FFB5154F4C00640D03D0BC42A7
:103B000004D10C0314D80020090D09055C00640DD4
:103B100003D0BC4204D11C030AD800221B0D1B0594
:103B200001264B4009D44B4003D58B4200D1824241
:103B3000FFBD9942FCD19042FFBD0B43DB1803430C
:103B40001343F5D0C9434918FFBD0000FF0700002B
:103B500000B5FFF7CFFF804100BDC04600B5FFF7BD
:103B6000C9FF01D9002000BD012000BD00B5FFF74D
:103B7000B9FF01D9002000BD012000BD00B5FFF74D
:103B8000B1FF804100BD012040054A00121804D851
:103B90005A00121801D800207047012070470020F9
:103BA000704700000021002805D17047C117484028
:103BB000401AFAD0C90713B5064B1B6898470CBCCE
:103BC000441CA2401005120B0349091B09051943A7
:103BD000114310BD841200201F04000010B54C00DA
:103BE000620D8023D218DB00D21A5B057E2A10DD1D
:103BF0009E3A13DACC170903490819435242D140BF
:103C0000640001341532202A05DAD04008436043AD
:103C100010BD002010BD0846604310BDC80FC0187D
:103C2000013810BD18B4044B5B6AFC46019308BD13
:103C300024DF75410010000048060020132370B5F2
:103C40001D78012D15D010DD1C48FFF779FC1C4CA8
:103C500001008022200000F05BFB022D06D01948F5
:103C6000FFF766FC184B186070BD154C174BA3642A
:103C7000F5E7164B124C23606360A360E360236199
:103C80006361A361E36123626362A362E36223630E
:103C90006363A363E36323646364A364E3642365EE
:103CA0006365A365E36523666366A366E3662367CE
:103CB0006367A367E367A364D1E7C046534400008A
:103CC000480600204C33000084120020D13C001034
:103CD00007B5604601880A0A0230DF2AFAD1C9B264
:103CE000820804D3028840880004104300E0006882
:103CF000014A5050039007BD480600200FB403BC92
:103D00000CBCF0B50124E407634000E0F0B50C0DF5
:103D1000CF0F661E3605891B640503D3C943404295
:103D200000D30131640D03D0661CF60A07D0E41BF2
:103D300000207F00791C89078912803C24031D0D17
:103D4000DF0F6E1E36059B1B6D0503D3DB4352420E
:103D500000D301336D0D03D06E1CF60A07D0ED1BA6
:103D600000227F007B1C9B079B12803D2D032F1B95
:103D7000661B58D4A446202E46DA20371400BC40D7
:103D80001D00BD40F24033412A4380185941CB0FFA
:103D900005D0C943C04300226442504151416246AC
:103DA0004D0D28D10D0D07D100281FD024194041F9
:103DB0004941013A0D0DF9D0640006D3013000D31A
:103DC0000131002C01D140084000013A0BD4941C71
:103DD000E40A04D112051144DB071944F0BDD907E8
:103DE000204B194300E0D9070020F0BD0029DDD1A8
:103DF000002CDBD1F0BD0132C6074008CD072843B7
:103E00004908002EE1D0D9E73C2E29DA203E403780
:103E10001400BC4000D00124F24014431A00BB40FF
:103E20001C43D317ACE7AC46202F08DA2036040039
:103E3000B4400D00B540F84039412843A5E73C2F78
:103E40000CDA203F40360400B44000D00124F84092
:103E500004430800B1400C43C117EAE71000190001
:103E6000002494E70000F07FF0B50C0D661E3605C7
:103E7000891BE60A6405640D02D0651CED0A04D0B6
:103E8000002001210905803C2403A4461C0D671E67
:103E90003F05DB1BE70A6405640D02D0651CED0AD3
:103EA00004D0002201231B05803C24037740644496
:103EB00097B484B296B27443070C7E43150C6F43DB
:103EC00080B26843361802D3012000043F18300442
:103ED000350C00197D41844688B29AB250430C0CCF
:103EE00062431F0C7C438EB27E43921902D301269B
:103EF0003604A4191604170C3618674101BC81B2A8
:103F00009AB25143040C62431B0C5C4380B2584389
:103F1000121802D30120000424181004130C4018B6
:103F200063412D185E410020474106BC88B293B220
:103F300058430C0C6343120C544389B251435B1831
:103F400002D301210904641819041A0C09186241EA
:103F50006D1856410020474118BCF902720D1143FB
:103F6000F0026A0D1043ED020A0D03D16D194041B4
:103F70004941013B124E9B1B7600B3420ED26D00AD
:103F800007D30130002671416646354301D1400810
:103F900040001B05C918E4072144F0BD0BDA0133CA
:103FA00006D1013004D101314F0D01D04908F2E7AB
:103FB000E1070020F0BD013631050020EBE70000ED
:103FC000FF030000F0B51C0D671E3F05DB1BE70A71
:103FD0006405640D02D0661CF60A04D00022012399
:103FE0001B05803C2403D0252D060026F6432E66B3
:103FF0001E096E66CE0FF619B44649004F0D02D069
:104000007E1CF60A03D000200021403F3F033E1BE8
:10401000B600B444013F7F05C91B49082E6F013625
:1040200076089C02950D25437543ED137543AD133A
:1040300001356D10F603761B0CB4CC02450D2C43F4
:10404000A2B2B3B25A43270C7B43350C6F43A4B2E0
:104050006C431B1902D3012424043F191C041D0CBA
:10406000A4187D4124196D41009A91B2ACB261430C
:10407000170C7C432B0C5F4392B25A43A41802D313
:1040800001221204BF182204230C52187B41019C08
:104090006C431B19520ED9010A434401A01A81B284
:1040A000B2B2514303145A43360C734387B2774379
:1040B000D617D21900277E4136049B191704160C17
:1040C0007F185E417316ED18F301002680337541A9
:1040D000A90F06D16400690AE8055B0A184309D2F2
:1040E0002FE00422944480337541A90AA8059B0A55
:1040F000184326D3404149412404009A019B0D00F6
:104100005543641B4343E41A95B286B27543170CBA
:104110007E43030C5F4392B25A43B61802D3012286
:104120001204BF183204330C52197B4152429C4195
:10413000002C02D40022013051414008CA0710432C
:10414000490802B06246D7079210084BD218084BB4
:104150009A4203D212058918C919F0BD0020002A1D
:1041600001DC3900F0BD01331905F5E7FD0300005E
:10417000FE070000002200B5203200F004F808001D
:1041800000BD000000220B150AD410B5944600F0C3
:1041900031F81414013400DA0021CB17144C2047F5
:1041A0000020002170476244343A0CD40C2A07DA0C
:1041B00004009140904052422032D440214310BD2F
:1041C000D843D94310BD203207D40C469440524204
:1041D00020321141D040204310BD0800C9172032C1
:1041E00003D452422032104110BD1800190010BDF6
:1041F000A74100100A0DCC0F531E1B05C91A52050A
:1042000003D3C943404200D30131520D03D0531CA4
:10421000DB0A07D0121B00206400611C8907891289
:10422000803A1203014BD21A70470000FF030000CE
:1042300051434343C9188C46110C83B24B4310B40D
:10424000040C614392B280B2504362431C041B0CC5
:10425000001910BC59411304120CC018514161449B
:1042600070470000132310B512481C78FFF768F957
:104270000100012C0AD003DD80220F4800F048F82D
:104280000E48FFF755F90E4B186010BD0A4C54222A
:10429000200000F03DF80B4B6365A365E3652366E2
:1042A0006366A366E36623676367A367E3672362C6
:1042B000E361E5E753460000480700204C33000067
:1042C00084120020C942001007B5604601880A0A1E
:1042D0000230DF2AFAD1C9B2820804D302884088AA
:1042E0000004104300E00068014A5050039007BDED
:1042F0004807002001480421014B1847D004002042
:1043000051350010014B1B6818470000D0040020F5
:10431000014B5B6818470000D0040020030010B573
:10432000080011001B68984710BDC046F0B546460E
:104330004F46D646C0B5437C80460E001700002B82
:1043400046D0002A3FDD4B1E9946244B0125002410
:1043500000209A460DE04B461B5D0D3B5A425341EF
:10436000325DDBB20A2A0BD02B00013401359F42AB
:104370001ADD002CEFD14346325D1B7C0A2AF3D1B3
:10438000002BF1D1A04204DA4346211A1B683018F1
:104390009847434650461B6802219847013428003D
:1043A0002B0001359F42E4DC874204DD4346391A85
:1043B0001B6830189847F619013E33780D3B5A4276
:1043C000534142461374E0BCBA46B146A846F0BD1C
:1043D0000368110030009847F5E7C046E07400100C
:1043E000F0B5C6460B6806000C0000B5802B06D061
:1043F0005A1C2260E418267180BCB846F0BD0F4BF1
:104400001D68002D16D00B1D98460D4F02E0ED687B
:10441000002D0FD02B68002BF9D03B68002B01D06A
:10442000AB42F4D1280041462268FFF77FFFED68D8
:10443000002DEFD101220023DBE7C046400E002013
:10444000440E0020F0B557464E464546DE461C0059
:10445000D023E0B51B061F68344B83B006000D0067
:10446000180001A991469A4602F0A2FE8046002853
:1044700008D1019B7FB29F4204D0504602F0B0FEAB
:10448000012398466B1C03D1300002F037FE050073
:10449000002C27D1264F274B1C68002C18D04B46E8
:1044A000002B21D1244B994602E0E468002C0FD068
:1044B0002368002BF9D04B461B68002B01D0A34288
:1044C000F3D120002A003100B847E468002CEFD176
:1044D0004346002B25D103B0F0BCBB46B246A946EB
:1044E000A046F0BD154FD6E7134B99460A239B46CD
:1044F00002E0E468002CEBD02368002BF9D04B4697
:104500001B68002B01D0A342F3D12A003100200008
:10451000B8475A466B4620001A7101A90122B847D4
:10452000E7E7504602F02CFED5E7C0462005002004
:104530002D430010400E0020440E00201D430010AB
:10454000F0B5CE46474680B583B06B46DE1CD0231F
:1045500030701B061C681F4B804601A91800994645
:1045600002F026FE071E20D01B4B1C68002C28D012
:104570001A4D02E0E468002C0FD02368002BF9D01C
:104580002B68002B01D0A342F4D12000012231007E
:10459000FFF7CCFEE468002CEFD1002F11D140468C
:1045A00003B0C0BCB946B046F0BD019B64B29C42AA
:1045B0000BD0484602F014FE074B01271C68002C64
:1045C000D6D1484602F0DCFDE9E7034B1C68002C1D
:1045D000CED1E4E720050020400E0020440E00204C
:1045E00070B5040002F08AFD0023010005000122DD
:1045F0002000FFF727FF084B1C68002C06D06368DB
:10460000002B05D09847E468002CF8D1280070BD35
:10461000E468002CF3D1F9E7400E00200A4A136841
:10462000002B05D10CE01A00DB680C32002B07D000
:104630009842F8D1002902D1C3681360C160704765
:104640000029FCD01060FAE7400E0020F0B5474684
:10465000CE46D02380B51B061F682D4BA3B00400A7
:104660000D00180001A9984602F0A2FD061E07D110
:10467000019B7FB29F4203D0404602F0B1FD01365C
:104680008422002101A8FFF73DFE2B0022002148D3
:1046900001A9FEF71DFF019B0700002B14D11E4B43
:1046A0001C68002C06D06368002B0BD09847E46888
:1046B000002CF8D1002E25D1380023B0C0BCB9465B
:1046C000B046F0BDE468ECE7134B1D689946002D39
:1046D0001CD0124C02E0ED68002D0FD02B68002B8F
:1046E000F9D02368002B01D0AB42F4D12800019A05
:1046F00002A9FFF71BFEED68002DEFD14B46019597
:104700001C68CEE7404602F03BFDD5E70195D1E7B6
:1047100020050020E1430010400E0020440E002040
:104720000FB400B583B004A901C90191FFF78EFF52
:1047300003B008BC04B0184710B500F03FF910BD35
:104740007047C0460022014B1A707047BF1200200C
:104750004B790020FF2B0BD18B79002B08D1CB7923
:10476000012B05D1082A03D9024B8A7809301A7027
:104770007047C046BF1200200120704770B5002965
:1047800015D115495379107909781B02034300208C
:10479000994200D070BD5378012B0AD0022BF9D179
:1047A000002064220021FDF785FB0120F2E70120B3
:1047B000F0E79478D278050012021443D20502D5AE
:1047C000620A93401D000548FEF7B2FE7F210300F8
:1047D000214028009847C046BF12002055420000E3
:1047E0000123037000487047E47400104B780A7886
:1047F0001B0213438A7810B512041A43CB781B06A8
:1048000013439622D200934200D010BD0348FEF716
:104810008FFE0021030008009847C0465542000063
:1048200070B5184C82B006000D00200001A902F0FE
:10483000BFFC002808D1D0231B06019A1B689A42AE
:104840001CD0200002F0CCFC002001F0B9FD0028B3
:1048500007D103256D42200002F092FC280002B02F
:1048600070BD002001F0C4FD0028F2D02A00310004
:10487000002001F0C9FD051EEBD0ECE703256D42D9
:10488000ECE7C0468C120020F0B5DE464E46574697
:10489000C0B5344B82B081460D00180001A99B467B
:1048A00002F086FC002808D1D0231B06019A1B6861
:1048B0009A4250D0584602F093FC002001F080FD4F
:1048C000002840D00024002D42DD274B9A4612E0FC
:1048D0004B460020191901F00BFE060000F0E4FD24
:1048E000002001F0C9FDFCF7A1FD53461860596096
:1048F000A419AC422CDA002001F014FE2E1B020099
:10490000B04200DD3200002AE2D100F0CDFD0020EF
:1049100001F0B2FD002001F053FD002818D0002066
:1049200001F000FE0028E4D1FCF780FD002753468B
:104930000E4E1A685B6892197B41994208D8D8D10B
:104940009042D6D904E000200021074B186059603E
:10495000584602F015FC02B0E0BCBB46B246A94680
:10496000F0BDC0468C1200204006002020A10700A8
:1049700010B5044B1878FBF74DFEFA20002180009B
:1049800010BDC046C012002010B5024B1878FBF7CE
:1049900041FE10BDC012002010B5074C00212000C0
:1049A00002F006FC002800D110BD00F07DFD2000C3
:1049B00002F0E6FBF8E7C0468C120020F0B5244B6D
:1049C00085B01B7801F096FF2248FCF7F5FF012027
:1049D000FCF7A6F8FF23204C204920701840FBF775
:1049E0003FFE20780121FBF703FE0520FBF71AFEAE
:1049F000041E0CD0002205201949FBF75BFE0121A3
:104A00001848FFF70BFE0124200005B0F0BDFCF7AD
:104A1000FFFA0500FCF70AFDFA2206000F0000234A
:104A2000920092197B4199420ED80BD0012102913C
:104A3000002101910C4928000091FCF7EDFA0028B3
:104A4000E2D0DCE79042F1D901225242D317EDE7E0
:104A5000F07600108C120020C0120020994900103E
:104A600089490010E0040020714900100048704797
:104A70009C750010004870474875001070B5040020
:104A800017480378002B21D0002C06D1154B16486F
:104A90004380063BFF3B038070BD052C1DD8134BA4
:104AA0001148A400E558811C002304E001330A806A
:104AB0000231132B0ED0EA5CDCB2002AF6D1C023FF
:104AC0000134E4B264009B002343E4E7112102F0C7
:104AD000A5F9D9E7CA239B00DDE70020DCE7C04643
:104AE000A412002009040000180E0020B075001068
:104AF000F0B5982357464546DE464E46664AE0B531
:104B0000D75880253C006D02883B9A4685B02C40E2
:104B10002F420FD001222321604B00205A54DA701B
:104B20005F4901F019FA80225E4B92021A655E4BD2
:104B30002C009A46FB0617D480235B011F4247D105
:104B40008023DB011F4200D07CE080231B021F4238
:104B500000D085E0BC4200D099E005B0F0BCBB4677
:104B6000B246A946A046F0BD4B4B9B6D9846002B24
:104B700029D04C4B00249B4601239946474B0126E4
:104B800003934346B8461F0004E001347600E4B2C4
:104B9000202C17D03742F8D05B469E654B466508FF
:104BA000A3436D00ED18039B6D019C4665442800EE
:104BB00000F00AFB00285ED10134B743E4B276006E
:104BC000002FE5D1474680235B0154461F42B7D0F2
:104BD0001C430023304A00211360314A334893605C
:104BE000D360136153619361D36113625362936223
:104BF000D362136353639363D36313645364936403
:104C0000D364136553659365D365136653669366E2
:104C1000D366136753679367D367F0229200FFF759
:104C200071FB234B234A00211A600020012201F06E
:104C300069F980221B4B12031A658023DB011F4296
:104C400000D182E70122042100201C4301F0CAF8B0
:104C50001022144B1A6580231B021F4200D179E7F2
:104C60000122052100201C4301F0BCF880220D4BDD
:104C700012011A656EE74B46AA8AA97800200093B4
:104C8000002301F091F9280000F0DCF994E72100FD
:104C900009487940FCF736FF00001150480E00200B
:104CA000000010500030115010000100880E00204C
:104CB0005012002080011050C875001010B501215D
:104CC0000520FBF795FC10BD10B50022002102481D
:104CD00000F0E0F910BDC046680E00208022024BB3
:104CE0005202DA647047C04600201150F0B5C64643
:104CF00000B5060000F080F90C232E4D0520AB67AF
:104D00002D49FBF7ADFC402398462C4C4022002156
:104D10002000FFF7F7FA43460127A3832121002350
:104D2000274A6770A260136063545F316184414613
:104D3000A18702396354234A23496360E260A16278
:104D40000B60E262214A636220009360D3601361CA
:104D500053619361D361136253629362D3621363AD
:104D600053639363D363136453649364D36413658D
:104D700053659365D365136653669366D36613676D
:104D800053679367D367F022002192004030FFF70A
:104D9000B9FA0F4B0F4A30001A6080239B052F642D
:104DA000EB6490230C4AEA50FFF798FF80BCB846AA
:104DB000F0BDC04600001150F14A0010480E00201E
:104DC000840010500001105080001050000010505E
:104DD000501200208001105010D001000B785B06AB
:104DE00002D14B78052B00D070478A78014B1A60AE
:104DF000FAE7C04600001150F0B5CE4647460723FB
:104E000080B548798E780A790340C8787F21800779
:104E100031401B02F40913434F00820F9446914620
:104E20002A4D3A195201AA1896700126664056700A
:104E3000604600269383D6709077CA00012C29D053
:104E400023488446880162448446AC4460468260BC
:104E50001660002929D01F4AC9009046414441608C
:104E60003F223F3393434A46022A00D15B001A494E
:104E70003F190A687F01D3180B60184BED19534096
:104E8000EA604A469006184380236A681B0603437B
:104E9000136010E012488446880162448446AC44A2
:104EA00060468262166000290AD1002364012C1931
:104EB00063600C4BE3600120C0BCB946B046F0BD56
:104EC000064AC900904641444162C9E7480E0020A5
:104ED00084001050040010505012002000001050A8
:104EE00080001050000110500022154B10B59A6040
:104EF000DA601A615A619A61DA611A625A629A62D8
:104F0000DA621A635A639A63DA631A645A649A64B7
:104F1000DA641A655A659A65DA651A665A669A6697
:104F2000DA661A675A679A67DA67F03292000021E8
:104F30000448FFF7E7F9044B044A1A6010BDC04665
:104F400000001050880E00205012002080011050E8
:104F500010B57F200C0020404000E409110000192A
:104F60001A00034B4001C01800F094F8012010BD56
:104F7000480E00207F23180010B508400B420BD0CC
:104F8000C90980224000074B401840010021C01889
:104F9000120100F05DF810BD0223034AC9095B1A33
:104FA0009366EEE7480E0020002011507F22130088
:104FB00010B50B400A4200D110BDC9095B005B1857
:104FC00004485B01C018002300220349C37000F0AD
:104FD0003FF8F1E7480E0020FFF7FFFF7F21C209ED
:104FE000034B9200014010B5D2580248FCF78AFDED
:104FF000F4040020DC75001080220D4B520410B523
:105000001A600C4B0C491A6010008B689843FBD156
:105010000A4C9C2200212000FFF774F98022002115
:1050200052010748FFF76EF90923636710BDC046B8
:1050300000E0004000F0004000C0004000001150BF
:105040000000105000230374438283828361704701
:1050500010B58368002901D01C682140002A11D0B6
:105060008024E400114322420CD01A6822420BD162
:10507000074A0A401A60FFE7FFE7FFE7FFE7FFE79D
:10508000FFE78368196010BD8078FFF7A7FFC0466F
:10509000FFFBFFFFF0B5C646002300B58382013356
:1050A0000374436804001F68838B81611E1C934254
:1050B00000D9161C8020B6B2921B93B2E278C000D1
:1050C000304315008446681E854160466D030543E4
:1050D00001204240E27062786382002A4FD0002BA8
:1050E0001DD1A023DB011D43334B1B6C8023334AAE
:1050F0009B053A40134362681360A26813685B051E
:1051000057D42F4B2B401360FFE7FFE7FFE7FFE784
:10511000FFE7FFE7A3681D6080BCB846F0BD8022B2
:1051200052011543244A126C920702D4A278D20984
:10513000DCD0A28B111C9A4200D9191C8AB28021A2
:10514000C90011439B1A9046E2789BB21600701E6C
:10515000864176030E4301214A40E2706278638201
:10516000002A18D0002B02D18023DB011E43A0238C
:10517000144A36043A40DB0535431343BBE732009B
:10518000E068FFF7C5F8A3699B19A36180231B02A0
:105190001D43638AA3E7E0684246A1694030FFF7F8
:1051A000B7F8A3694344A36180231B021E43638AAB
:1051B000D8E7A078FFF712FF00001150FFFFFFAF04
:1051C000FFFBFFFFFFFFFFDFF0B5C64600B5067C23
:1051D0000400002E00D1CFE083681A681D68437870
:1051E000AD05AD0D002B51D1838AEB189BB28382A4
:1051F000A18B8D4207D20023638263681B68300055
:1052000080BCB846F0BD62681268520002D58D427B
:1052100000D177E0638A002BF1D062681E1C17680A
:105220008B4200D90E1CE17880220D00681E85415A
:10523000B6B2D20032436D03154301229B1B51408D
:1052400062789BB26382E170002A6AD0002B2AD177
:10525000A023DB011D434D4B1B6C80234C4A9B0557
:105260003A40134362681360A26813685B0500D577
:1052700089E0484B2B401360FFE7FFE7FFE7FFE7BC
:10528000FFE7FFE7A36800261D60B8E72A008069F2
:10529000E168FFF73DF8A38AA269EB189BB25219A7
:1052A000A382A261A4E7802252011543374A126CFF
:1052B000920702D4A278D209CFD0A28B111C9A42B5
:1052C0003CD88AB28021C90011439B1A9046E278EB
:1052D0009BB21600701E864176030E4301214A40A0
:1052E000E27062786382002A38D0002B02D18023DA
:1052F000DB011E43A023284A36043A40DB05354330
:105300001343AFE7A26815686278AD01AD0D002ABE
:1053100016D1EB18A3828D4200D37BE70023638272
:105320006DE73200E068A169FEF7F2FFA3699B19FF
:10533000A36180231B021D43638A87E7191CC0E712
:10534000E1682A004031A069FEF7E2FFA38AA18B41
:10535000EB18A382A3695B19A361DCE7E06842460E
:10536000A1694030FEF7D4FFA3694344A3618023C1
:105370001B021E43638AB8E77F238178074A0848E7
:105380001940FCF7BFFBA078FFF728FE0000115082
:10539000FFFFFFAFFFFBFFFFFFFFFFDFF404002075
:1053A000FC750010024B5878431E9841C0B27047FC
:1053B000800B0020024B18784007C00F7047C04692
:1053C000800B0020014B18787047C046BB120020AC
:1053D000F8B54746CE4680B5294F05003B78002BEF
:1053E00004D00120C0BCB946B046F8BD532200210C
:1053F0002448FEF787FF244C2000FCF7DDFA234BFE
:105400001C60234C20001C30FCF7F2FA200001F055
:10541000B9FC204B204E1C60204B9846002B04D03A
:105420003000FFF7DDF91E4B186042460024337848
:10543000002A1DD01B4A9046194A91469C4210D31F
:105440001BD14346984701343378E4B2A342F5D2E6
:105450002800FFF74BFC2800FFF730FC01233B70CE
:10546000BFE74B461A6863001B19DB009B58E9E74E
:1054700001F064F83378002BEAD000231B68FFDECC
:10548000BB120020800B0020380B0020D40B002022
:10549000FC040020D80B0020BA120020E1470010C5
:1054A000480800203D650010F0B5DE4657464E46E0
:1054B0004546E0B58FB001F023FA002800D161E144
:1054C000CA4BCB4E9B465D46CA4B0BAC0093CA4BB6
:1054D00001933768FA69EFF3108172B61368002BF5
:1054E000FCD0BFF35F8F39623800210001F0C0FAB1
:1054F000FA693B6ABFF35F8F0021116083F3108864
:10550000002800D13EE16378082BE2D89B00EB58DD
:105510009F466368002BDCD0A0689847D9E77F20BE
:105520002179B64A084043009C46130063449846DC
:10553000CF09B844424601233032D7789F43D77011
:10554000D77803339F43D770002800D121E1434629
:10555000AB4ADB7C002A06D0AA4A1278934200D2DA
:10556000ABE19B1ADBB2002B00D00BE1A64FA36886
:1055700062792078B847ACE7A04B01229A461B78A5
:10558000012113435246137033235046D25C5746D1
:105590008A43C254C25C04208243FA540133FA5C49
:1055A0008A43FA54FA5C8243FA54237800209B46DB
:1055B00000F078FE602223791A40602A0DD0402A3C
:1055C00000D103E1DB06DB0E012B00D180E1022BD1
:1055D00000D133E1002B00D122E120780021FFF738
:1055E000C9FC80212078FFF7C5FC72E7834B1B784C
:1055F000DB0700D46DE7854B002B00D169E700E0A5
:1056000000BF66E77D4A1378DB0700D461E7804B73
:10561000002B00D15DE710780007C00F00E000BF4D
:1056200057E7784F764A00213B78002A00D1B6E050
:10563000714A91463A000F0090469F4208D39F421C
:1056400000D0AFE00137FFB29F4200D941E7F6D268
:105650004A4611687A00D219D2008A185269002A83
:10566000F0D020789047434601371B78FFB29F4225
:10567000E3D92EE72378634F614A994600213B78AE
:10568000002A00D19AE0634AB446924638000F00DF
:105690002900594A4E46554693468A468046E14679
:1056A000BB425FD800D086E02B00300098474346CD
:1056B00001371B78FFB2BB42F2D24E4655464F4FE0
:1056C000532200213800FEF71DFE1022FF21F81C96
:1056D000FEF718FE38002022FF211330FEF712FEDD
:1056E00000F0D6FD4C4B002B00D1F2E600E000BFED
:1056F000EFE62378434F424A994600213B78002A3F
:1057000053D0444AB446924638000F0029003A4A22
:105710004E46554693468A468046E1469F4229D3E7
:1057200049D12B0030009847434601371B78FFB220
:10573000BB42F3D24E465546304F5322002138002B
:10574000FEF7E0FD1022FF21F81CFEF7DBFD38001C
:105750002022FF211330FEF7D5FD00F099FD2379BB
:10576000BB70B6E65B461A687B00DB19DB00D3181A
:105770005B689AE75B461A687B00DB19DB00D3188D
:105780005B68CFE70FB0F0BCBB46B246A946A04667
:10579000F0BDA3686279207800F098FD99E6002BAF
:1057A00000D196E600235B69FFDE484600F004FF67
:1057B0003B78002BC0D000235B68FFDE484600F03A
:1057C000FBFE3B78002B00D179E7F4E71348002873
:1057D00000D102E700F066FD002158460CAA00E067
:1057E00000BF002800D074E6F7E6C046307600100F
:1057F000D80B0020E565001048080020800B002031
:10580000E1470010BA120020AD6700100000000050
:1058100000000000B965001000000000000000005A
:10582000202A00D189E0002A00D0D6E66379092B2E
:1058300000D9D2E6C64A9B00D3589F467023217AEE
:105840000B4200D0C9E60F330B405B009C4650462C
:10585000CF096044C019C07C02938446BD4800282B
:1058600008D0BD480078844500D289E06346181A04
:10587000C3B29C46604600287CD1002A00D00CE1CF
:10588000B64B98460220627991468243012A00D1A4
:1058900007E14A46002A00D09FE6029B0AAA534429
:1058A000DB193033DB7802329B07DB0F138058465D
:1058B00002230CA900F096FC0BE6A94A58001268D6
:1058C000C318DB00D318002B00D15BE71F694EE63D
:1058D000237A0F2B00D980E69E4A5344DB78002AB6
:1058E00005D09D4A1278934265D39B1ADBB2002BF8
:1058F00000D072E69B48994F00F0D4FC0021584636
:10590000FB680CAA9847002800D0E2E56022170047
:1059100023791F401A4200D05FE663790A3B012BCE
:1059200000D95AE600F0BEFC63790A2B00D1E7E00B
:1059300058460CA900F040FCCBE5237A0F2B00D988
:105940004BE6844A5344DB78002A06D0824A127818
:10595000934200D2C9E09B1ADBB2002B00D03CE698
:1059600080487E4F00F09EFC00215846FB680CAA40
:10597000984736E7002A00D02FE60023984681E7B3
:1059800063465B009846E0444346DB009846744813
:1059900000688044002A00D174E74346002B00D100
:1059A0001BE6D86800F07EFC434600215846DB68C1
:1059B0000CAA984715E76A4A59001768CB18DB000C
:1059C000FF18002F00D108E6F86895E7E388012B5F
:1059D00000D002E608223B78934352461370A7E7B3
:1059E000022039780AAB9A1C8B068908DB0F01402C
:1059F0000B435BE7A27905927B789A4207D07B78CC
:105A0000002B00D036E1059B002B00D0B0E05346C0
:105A1000059A58460CA95A7000F0CEFB59E57B78E0
:105A20000AAA02321370584601230CA900F0DAFBCF
:105A30004FE5E088030AC0B20F2B00D9CDE54A49F3
:105A40009A008A5897460CA800F032FC5846A17973
:105A5000FFF73AF902223B7813433B7039E5E388BC
:105A6000012B00D0B9E508223B781343B5E7022BA0
:105A700000D1A0E13D4B002B00D1AEE500E000BF1E
:105A80000200002A00D1A8E5D37891781B020B43CD
:105A900058460CA900F0A6FBA3E6304B31489846C7
:105AA00080E7E288002A09D14B46012B3DD0029BBA
:105AB0005344DF193037FB789B072AD54346002B28
:105AC00000D106E5D86800F0EDFB43460CAADB6880
:105AD000002158469847002000F0E4FB342352464A
